S00D000061756667312E7372656343
S11300000C9434000C9449000C9449000C9449005D
S11300100C9449000C9449000C9449000C94490038
S11300200C9449000C9449000C9449000C94490028
S11300300C9449000C9449000C9449000C94490018
S11300400C9449000C9449000C9449000C94490008
S11300500C9449000C9449000C9449000C944900F8
S11300600C9449000C94490011241FBECFEFD8E032
S1130070DEBFCDBF11E0A0E0B1E0E8ECF1E002C0EA
S113008005900D92A230B107D9F70E9485000C9417
S1130090E2000C940000282F30E0A9015595479503
S11300A05595479540FF02C0589801C0589A359518
S11300B0279520FF02C0599801C0599A80FF02C0B9
S11300C05E9808955E9A089589B179B169B191E015
S11300D085FB882780F98927769576957695792703
S11300E0472F417050E0440F551F482B842F8B7FBE
S11300F0462F42954F709427292F217030E0220F0C
S1130100331F220F331F822B0895809100018760D3
S113011080930001509A519A569A5D9A5B9A5C9A20
S1130120289A5A9A589A599A5E9A0E946400182FEB
S113013087E080930001DD24D394B12CCC24C394B4
S113014093B1D92FD17090FF08C0011106C010934C
S11301500001812F0E944B00DB2CC9B1C2FBCC27CC
S1130160C0F9CC2349F0F11007C0109300010E949C
S11301706400182FDC2C05C00E946400182FDD20B9
S1130180A9F029E0E21211C0809100010E944B0005
S113019080910001811104C010930001EB2C06C072
S11301A0815080930001EB2C01C0E3948FEF91EE1A
S11301B024E0815090402040E1F700C000000D2F62
S10B01C0FC2EBECFF894FFCF22
S10501C807002A
S9030000FC
