:100000000C9434000C9451000C9451000C94510049
:100010000C9451000C9438020C9451000C94510033
:100020000C9451000C9451000C9451000C9451000C
:100030000C9451000C941C010C9451000C94510030
:100040000C9451000C9451000C9451000C945100EC
:100050000C9451000C9451000C9451000C945100DC
:100060000C9451000C94510011241FBECFEFD8E026
:10007000DEBFCDBF11E0A0E0B1E0E6E5F6E002C0F2
:1000800005900D92A230B107D9F721E0A2E0B1E0CE
:1000900001C01D92AD35B207E1F70E944D020C94EC
:1000A00029030C9400001F93CF93DF9390911401C8
:1000B000992381F0E1E0F0E0DF01A295B295B07FF5
:1000C000BA27A07FBA27A35FBE4F17969C919111C4
:1000D0002BC002C0E0E0F0E01FB7F894EF01C2953A
:1000E000D295D07FDC27C07FDC27C35FDE4F8883BB
:1000F00081E08F833E832D83FE013896188611821E
:10010000128213821482158216821782CB01BA01E1
:1001100024E630E040E050E00E94E90229833A837F
:100120004B835C831FBF04C03196E530F10521F697
:10013000DF91CF911F910895CF9390910D01981762
:1001400079F021E030E0F901E295F295F07FFE27A9
:10015000E07FFE27E35FFE4F908198132FC002C01F
:1001600020E030E08FB7F894D901A295B295B07F26
:10017000BA27A07FBA27A35FBE4F92E017969C9341
:100180001797C09105017091060160910701509188
:1001900008014091090130910A0120910B019091D1
:1001A0000C01FD0138961896CC93718362835383BA
:1001B00044833583268397838FBF06C02F5F3F4FCD
:1001C0002530310509F0BFCFCF91089520E030E010
:1001D000F901E295F295F07FFE27E07FFE27E35FCD
:1001E000FE4F908198130DC09FB7F894F901E295E6
:1001F000F295F07FFE27E07FFE27E35FFE4F178238
:100200009FBF2F5F3F4F2530310511F7089588E3D9
:100210009FEF9093850080938400E1E8F0E0808177
:10022000887F8083808182608083EFE6F0E0808138
:1002300081608083789408951F920F920FB60F9279
:1002400011242F923F924F925F926F927F928F92E2
:100250009F92AF92BF92CF92DF92EF92FF920F9355
:100260001F932F933F934F935F936F937F938F933E
:100270009F93AF93BF93CF93DF93EF93FF9388E365
:100280009FEF9093850080938400C0E0D0E02091A0
:1002900005013091060140910701509108016091DC
:1002A000090170910A0180910B0190910C01DE010E
:1002B000A295B295B07FBA27A07FBA27A35FBE4FA1
:1002C000FD0138961896AC901897B180C280D38003
:1002D000E480F5800681178111964D905D906D90B8
:1002E0007C9014970E94170312012301A22CB32CB7
:1002F000C42CD52CE12CF12C00E010E00E9420034E
:1003000070F0FD018781823051F48D011596ED91D9
:10031000FC9116970995F80180810E94E6002196CC
:10032000C530D10509F0B3CF209105013091060108
:1003300040910701509108016091090170910A01F3
:1003400080910B0190910C01A1E00E940B0320937E
:100350000501309306014093070150930801609313
:10036000090170930A0180930B0190930C01FF9196
:10037000EF91DF91CF91BF91AF919F918F917F913D
:100380006F915F914F913F912F911F910F91FF902E
:10039000EF90DF90CF90BF90AF909F908F907F9025
:1003A0006F905F904F903F902F900F900FBE0F90E7
:1003B0001F9018954FB7F8942091030130910401D4
:1003C000822B932B90930401809303014FBF0895D8
:1003D00081E090E00E94DA01089582E090E00E94BE
:1003E000DA0108954FB7F894209103013091040188
:1003F0008095909582239323909304018093030129
:100400004FBF0895282F30E0A90155954795559580
:10041000479540FF02C0289801C0289A3595279536
:1004200020FF02C0299801C0299A80FF02C02A98A3
:1004300008952A9A089549B159B189B191E045FBCF
:10044000442740F949275295569556955370592798
:10045000252F217030E0220F331F242B2B7F881F84
:100460008827881F9827892F880F880F822B089547
:100470001F920F920FB60F9211248F938091020159
:10048000809300018F910F900FBE0F901F901895D1
:1004900095B188E0892785B90895209A219A229AF2
:1004A000239A549A439A5D9A5E9A5F9A5A9A5B9AF3
:1004B000289A299A2A9A2B9AE8E6F0E080818460AB
:1004C0008083EDE6F0E080818061808378940E94F3
:1004D0001B028093020180910201809300010E941F
:1004E00007012DEE31E040E452E46FE070E080E07F
:1004F0000E94530028EE31E040E553EC60E070E0EC
:1005000081E00E94530080E00E949C0081E00E94F4
:100510009C0000E1809103019091040180FF2AC0BA
:10052000C9B1C2FBCC27C0F9CC2349F0D11107C017
:1005300081E0809301018091020180930001D9B193
:10054000D3FBDD27D0F9DD2361F011110AC0109231
:1005500001018091020180930001809100010E94BD
:10056000020281E090E00E94F20181E00E949C0082
:100570001D2FDC2F809103019091040181FF22C087
:100580000E9448020E941B02809302018091010197
:10059000882389F0809100010E940202809100016D
:1005A000811104C08BB180278BB905C080910001F7
:1005B00081508093000182E090E00E94F20180E08F
:1005C0000E949C008FE39CE90197F1F700C00000B6
:1005D000A1CFA1E21A2EAA1BBB1BFD010DC0AA1FB1
:1005E000BB1FEE1FFF1FA217B307E407F50720F09C
:1005F000A21BB30BE40BF50B661F771F881F991F17
:100600001A9469F760957095809590959B01AC015F
:10061000BD01CF0108950024A7FD00942A0F301DCD
:10062000401D501D601D701D801D901D08952A19CC
:100630003B094C095D096E097F09800B910B0895F8
:100640002A153B054C055D056E057F058007910762
:060650000895F894FFCFAD
:0206560007019A
:00000001FF
