:100000000C9434000C948C000C9451000C94CB0094
:100010000C949F000C9451000C9451000C945100CE
:100020000C9451000C9451000C9451000C9451000C
:100030000C9451000C9451000C9451000C945100FC
:100040000C9451000C9451000C9451000C945100EC
:100050000C9451000C9451000C9451000C945100DC
:100060000C9451000C94510011241FBECFEFD8E026
:10007000DEBFCDBF11E0A0E0B1E0EAE6F2E002C0F1
:1000800005900D92A230B107D9F721E0A2E0B1E0CE
:1000900001C01D92A330B207E1F70E94DE000C946C
:1000A00033010C940000282F30E0A90155954795A5
:1000B0005595479540FF02C0589801C0589A35950C
:1000C000279520FF02C0599801C0599A80FF02C0AD
:1000D0005E9808955E9A089569B179B159B176959F
:1000E0007695769541E07427872F817090E0880F90
:1000F000991F65FB992790F99427892B8B7F952F62
:1001000092959F704927242F217030E0220F331FD2
:10011000220F331F822B08951F920F920FB60F925A
:1001200011248F9381E080930101809102018093DB
:1001300000018F910F900FBE0F901F9018951F9286
:100140000F920FB60F9211242F933F934F935F930B
:100150006F937F938F939F93AF93BF93EF93FF938F
:1001600010920101809102018093000180910001B1
:100170000E945300FF91EF91BF91AF919F918F919A
:100180007F916F915F914F913F912F910F900FBE93
:100190000F901F9018951F920F920FB60F92112477
:1001A0008F9380910201809300018BB180588BB9AD
:1001B0008F910F900FBE0F901F901895509A519AE3
:1001C000569A579A209A5D9A5B9A5C9A439A5A9AE1
:1001D000589A599A5E9AE9E6F0E080818C7F808394
:1001E000808182608083E89AE8E6F0E08081826026
:1001F0008083808181608083ECE6F0E0808188608C
:100200008083EBE6F0E080818160808378940E94B7
:100210006C00809302018091020180930001C1E093
:100220000E946C008093020180910101882389F073
:10023000809100010E94530080910001811104C04F
:1002400085B18C2785B905C08091000181508093CC
:1002500000012FEF83ED90E3215080409040E1F7C3
:0A02600000C00000DDCFF894FFCFCE
:02026A0007018A
:00000001FF
