S00D000061756667312E7372656343
S11300000C9434000C9451000C9451000C94510045
S11300100C9451000C9451000C9451000C94510018
S11300200C9451000C9451000C9451000C94510008
S11300300C9451000C9451000C9451000C945100F8
S11300400C94AA000C9451000C9451000C9451008F
S11300500C9451000C9451000C9451000C945100D8
S11300600C9451000C94510011241FBECFEFD8E022
S1130070DEBFCDBF11E0A0E0B1E0EAE2F3E002C0F0
S113008005900D92A230B107D9F721E0A2E0B1E0CA
S113009001C01D92A730B207E1F70E94FC000C9446
S11300A093010C9400004FB7F8942091050130910E
S11300B00601822B932B90930601809305014FBF79
S11300C008954FB7F8942091050130910601809569
S11300D090958223932390930601809305014FBF4B
S11300E00895282F30E0A9015595479555954795D2
S11300F040FF02C0589801C0589A3595279520FFB3
S113010002C0599801C0599A80FF02C05E980895B0
S11301105E9A089569B179B159B1769576957695D7
S113012041E07427872F817090E0880F991F65FB49
S1130130992790F99427892B8B7F952F92959F70FF
S11301404927242F217030E0220F331F220F331F41
S1130150822B08951F920F920FB60F9211242F93A2
S11301603F934F935F936F937F938F939F93AF933B
S1130170BF93CF93DF93EF93FF9386E086BDC09147
S11301800201D09103012196D0930301C09302018F
S11301909E0136952795ABE7B4E10E9484019695BC
S11301A0879542E3489F9001499F300D1124C2175F
S11301B0D30721F481E090E00E945300C83ED3406D
S11301C041F482E090E00E945300109203011092E7
S11301D00201FF91EF91DF91CF91BF91AF919F9178
S11301E08F917F916F915F914F913F912F910F90DC
S11301F00FBE0F901F901895509A519A569A579A7D
S1130200209A5D9A5B9A5C9A289A5A9A589A599AB3
S11302105E9A84B1836084B986E086BD85B5887FA3
S113022085BD85B5836085BDEEE6F0E080818160A3
S1130230808378940E948A00809304018091040151
S11302408093000102E0FF24F3940E948A008093CB
S11302500401809105019091060181FF1AC082E09A
S113026090E00E94610080910101882391F08091C7
S113027000010E94710080910001811105C08091EC
S113028004018093000105C0809100018150809396
S11302900001809105019091060180FF2EC081E04C
S11302A090E00E94610085B1802785B983B1C82F91
S11302B0C17080FF0CC0D1110AC01092010180915D
S11302C0040180930001809100010E94710089B1B2
S11302D082FB882780F9882359F011110CC0F09211
S11302E001019091040190930001182FDC2F05C0A7
S11302F0182FDC2F02C0182FDC2F8FE39CE9019705
S1130300F1F700C00000A1CFA29FB001B39FC001CC
S1130310A39F700D811D1124911DB29F700D811D2D
S10D03201124911D0895F894FFCFF5
S105032A0701C5
S9030000FC
