:100000000C9434000C948D000C9451000C9451000D
:100010000C94A0000C9451000C9451000C945100CD
:100020000C9451000C9451000C9451000C9451000C
:100030000C9451000C9451000C9451000C945100FC
:100040000C9451000C9451000C9451000C945100EC
:100050000C9451000C9451000C9451000C945100DC
:100060000C9451000C94510011241FBECFEFD8E026
:10007000DEBFCDBF11E0A0E0B1E0E8E3F2E002C0F6
:1000800005900D92A230B107D9F721E0A2E0B1E0CE
:1000900001C01D92A330B207E1F70E94CD000C947D
:1000A0001A010C940000282F30E0A90155954795BE
:1000B0005595479540FF02C0589801C0589A35950C
:1000C000279520FF02C0599801C0599A80FF02C0AD
:1000D0005E9808955E9A089589B179B169B191E009
:1000E00085FB882780F989277695769576957927F7
:1000F000472F417050E0440F551F482B842F8B7FB2
:10010000462F42954F709427292F217030E0220FFF
:10011000331F220F331F822B08951F920F920FB6A9
:100120000F9211248F9381E080930101809102014D
:10013000809300018F910F900FBE0F901F90189524
:100140001F920F920FB60F9211242F933F934F934C
:100150005F936F937F938F939F93AF93BF93EF932F
:10016000FF931092010180910201809300010E948F
:1001700053008BB180588BB9FF91EF91BF91AF9134
:100180009F918F917F916F915F914F913F912F91AF
:100190000F900FBE0F901F901895809100018760FF
:1001A00080930001509A519A569A579A5D9A5B9A99
:1001B0005C9A439A5A9A589A599A5E9AE9E6F0E0FC
:1001C00080818C7F8083808182608083E89AE8E6EA
:1001D000F0E0808182608083ECE6F0E080818860DE
:1001E000808378940E946C00182F80930001D0E0E7
:1001F000909101019923A1F0C93089F48091000107
:100200000E94530090910001911104C010930001CD
:10021000CD2F06C0915090930001CD2F01C0CF5F2C
:100220002FEF81EE94E0215080409040E1F700C034
:080230000000DECFF894FFCFBF
:020238000701BC
:00000001FF
