:100000000C9434000C943E000C943E000C943E0082
:100010000C943E000C943E000C943E000C943E0068
:100020000C943E000C943E000C943E000C943E0058
:100030000C943E000C943E000C943E000C943E0048
:100040000C943E000C943E000C943E000C943E0038
:100050000C943E000C943E000C943E000C943E0028
:100060000C943E000C943E0011241FBECFEFD8E04C
:10007000DEBFCDBF0E947A000C94CA000C94000031
:10008000282F30E0A901559547955595479540FF94
:1000900002C0289801C0289A3595279520FF02C0F4
:1000A000299801C0299A80FF02C02A9808952A9AA7
:1000B000089589B179B169B191E082FB882780F90F
:1000C00089277695769576957927472F417050E068
:1000D000440F551F482B842F8B7F462F42954F701E
:1000E0009427292F217030E0220F331F220F331F56
:1000F000822B0895209A219A229A589A599A5A9AAC
:100100005B9A5C9A289A299A2A9A0E945900182F79
:10011000DD24D39400E00F2EF7E0CF2EF02DA12C9C
:10012000BB24B39499B1D92FD17090FF07C0F110BF
:1001300005C0812F0E944000C12EDA2CC9B1C6959E
:10014000C17011F0002301F10E945900182FDD2029
:1001500079F029E0E21208C08C2D0E944000CC20EA
:1001600029F0CA94EA2C04C0E39402C0C12EEA2C00
:100170008FEF91EE24E0815090402040E1F700C0E5
:100180000000FD2E0C2FCECF0E945900C12E182F3B
:08019000DB2CDFCFF894FFCF58
:00000001FF
