:100000000C9434000C943E000C943E000C943E0082
:100010000C943E000C943E000C943E000C943E0068
:100020000C943E000C943E000C943E000C943E0058
:100030000C943E000C943E000C943E000C943E0048
:100040000C943E000C943E000C943E000C943E0038
:100050000C943E000C943E000C943E000C943E0028
:100060000C943E000C943E0011241FBECFEFD8E04C
:10007000DEBFCDBF0E9440000C9467000C940000CE
:10008000209A219A229A85B185B9299A2A9A87E0DD
:1000900097E082FF02C0289801C0289A81FF02C021
:1000A000299801C0299A80FF02C02A9801C02A9A83
:1000B000882311F0815001C0892F2FEF33ED40E3E9
:1000C000215030404040E1F700C00000E2CFF894FA
:0200D000FFCF60
:00000001FF
