S00F0000756562756E67322E737265635D
S11300000C9434000C948D000C9451000C94510009
S11300100C9451000C9451000C9451000C94510018
S11300200C9451000C9451000C9451000C94510008
S11300300C9451000C9451000C9451000C945100F8
S11300400C9451000C9451000C9451000C945100E8
S11300500C9451000C9451000C9451000C945100D8
S11300600C9451000C94510011241FBECFEFD8E022
S1130070DEBFCDBF11E0A0E0B1E0E6EEF1E002C0EA
S113008005900D92A230B107D9F721E0A2E0B1E0CA
S113009001C01D92A330B207E1F70E94A0000C94A6
S11300A0F1000C940000282F30E0A90155954795E4
S11300B05595479540FF02C0589801C0589A359508
S11300C0279520FF02C0599801C0599A80FF02C0A9
S11300D05E9808955E9A089589B179B169B191E005
S11300E085FB882780F989277695769576957927F3
S11300F0472F417050E0440F551F482B842F8B7FAE
S1130100462F42954F709427292F217030E0220FFB
S1130110331F220F331F822B08951F920F920FB6A5
S11301200F9211248F9381E0809301018091020149
S1130130809300018F910F900FBE0F901F90189520
S113014080910001876080930001509A519A569AD9
S11301505D9A5B9A5C9A289A5A9A589A599A5E9A26
S1130160E9E6F0E080818C7F8083808182608083F7
S1130170E89A78940E946C00082F87E0809300012D
S113018093B1C92FC17090FF09C0D11107C010925B
S1130190010100930001802F0E94530090910101FE
S11301A09923A1F0193089F4809100010E94530031
S11301B080910001811104C00093000110E006C089
S11301C081508093000110E001C01F5F2FEF81EE8A
S11301D094E0215080409040E1F700C00000DC2F03
S10901E0CFCFF894FFCF1D
S10501E607010B
S9030000FC
