:100000000C9434000C9489000C9451000C94510011
:100010000C949C000C9451000C9451000C945100D1
:100020000C9451000C9451000C9451000C9451000C
:100030000C9451000C9451000C9451000C945100FC
:100040000C9451000C9451000C9451000C945100EC
:100050000C9451000C9451000C9451000C945100DC
:100060000C9451000C94510011241FBECFEFD8E026
:10007000DEBFCDBF11E0A0E0B1E0EEE2F2E002C0F1
:1000800005900D92A230B107D9F721E0A2E0B1E0CE
:1000900001C01D92A330B207E1F70E94C8000C9482
:1000A00015010C940000282F30E0A90155954795C3
:1000B0005595479540FF02C0289801C0289A35956C
:1000C000279520FF02C0299801C0299A80FF02C00D
:1000D0002A9808952A9A089549B159B189B191E0B1
:1000E00045FB442740F9492752955695569553703C
:1000F0005927252F217030E0220F331F242B2B7F0F
:10010000881F8827881F9827892F880F880F822BA0
:1001100008951F920F920FB60F9211248F9381E0D2
:100120008093010180910201809300018F910F90D3
:100130000FBE0F901F9018951F920F920FB60F923F
:1001400011242F933F934F935F936F937F938F93DC
:100150009F93AF93BF93EF93FF9310920101809110
:10016000020180930001809100010E945300FF91E1
:10017000EF91BF91AF919F918F917F916F915F911F
:100180004F913F912F910F900FBE0F901F90189598
:10019000209A219A229A239A5A9A439A5D9A5E9AB1
:1001A0005F9A289A299A2A9A2B9AE9E6F0E08081A8
:1001B0008E7F8083808182608083E89AE8E6F0E029
:1001C000808182608083ECE6F0E0808188608083BB
:1001D00078940E946C0080930201809102018093C8
:1001E00000010E946C00809302018091010188232C
:1001F00091F0809100010E945300809100018111D3
:1002000005C0809102018093000105C0809100012A
:100210008150809300012FEF83ED90E321508040C7
:0E0220009040E1F700C00000DCCFF894FFCF63
:02022E000701C6
:00000001FF
