:100000000C9434000C9451000C9451000C94510049
:100010000C9451000C94A7000C9451000C945100C6
:100020000C9451000C9451000C9451000C9451000C
:100030000C9451000C9451000C9451000C945100FC
:100040000C94B7000C9451000C9451000C94510086
:100050000C9451000C9451000C9451000C945100DC
:100060000C9451000C94510011241FBECFEFD8E026
:10007000DEBFCDBF11E0A0E0B1E0E2E5F3E002C0F9
:1000800005900D92A230B107D9F721E0A2E0B1E0CE
:1000900001C01D92A730B207E1F70E9409010C943C
:1000A000A7010C9400004FB7F894209105013091FE
:1000B0000601822B932B90930601809305014FBF7D
:1000C00008954FB7F894209105013091060180956D
:1000D00090958223932390930601809305014FBF4F
:1000E0000895282F30E0A9015595479555954795D6
:1000F00040FF02C0289801C0289A3595279520FF17
:1001000002C0299801C0299A80FF02C02A98089548
:100110002A9A089549B159B189B191E045FB442724
:1001200040F9492752955695569553705927252FD2
:10013000217030E0220F331F242B2B7F881F88274C
:10014000881F9827892F880F880F822B08951F9268
:100150000F920FB60F9211248F9380910401809318
:1001600000018F910F900FBE0F901F9018951F9256
:100170000F920FB60F9211242F933F934F935F93DB
:100180006F937F938F939F93AF93BF93CF93DF939F
:10019000EF93FF9386E086BDC0910201D0910301E9
:1001A0002196D0930301C09302019E0136952795B5
:1001B000ABE7B4E10E9498019695879542E3489F8A
:1001C0009001499F300D1124C217D30721F481E01B
:1001D00090E00E945300C83ED34041F482E090E09A
:1001E0000E9453001092030110920201FF91EF91BF
:1001F000DF91CF91BF91AF919F918F917F916F913F
:100200005F914F913F912F910F900FBE0F901F90D4
:100210001895209A219A229A239A549A439A5D9A81
:100220005E9A5F9A5A9A5B9A289A299A2A9A85B175
:1002300085B9E8E6F0E0808184608083EDE6F0E057
:1002400080818061808386E086BD85B5887F85BD9D
:1002500085B5836085BDEEE6F0E0808181608083B6
:1002600078940E948A008093040180910401809315
:100270000001FF24F39408E06894EE24E4F88091F0
:1002800005019091060180FF29C0C9B1C2FBCC27AE
:10029000C0F9CC2359F0D11109C0F092010180912D
:1002A00004018093000185B1802785B9D9B1D3FBC2
:1002B000DD27D0F9DD2361F011110AC01092010190
:1002C0008091040180930001809100010E947100DF
:1002D00081E090E00E9461001D2FDC2F80910501DC
:1002E0009091060181FF1DC00E948A008093040145
:1002F00080910101882389F0809100010E947100A2
:1003000080910001811104C08BB18E258BB905C08D
:100310008091000181508093000182E090E00E9472
:1003200061008FE39CE90197F1F700C00000A7CFBF
:10033000A29FB001B39FC001A39F700D811D112426
:10034000911DB29F700D811D1124911D0895F89487
:02035000FFCFDD
:020352000701A1
:00000001FF
